:100000000C9432000C944F000C944F000C944F0051
:100010000C944F000C944F000C944F000C943D0333
:100020000C944F000C944F000C944F000C94EB0276
:100030000C944F000C944F000C944F000C944F0004
:100040000C944F000C944F000C944F000C944F00F4
:100050000C944F00AC02AF02B202BE02B502B8026D
:10006000BB02C70211241FBECFE5D8E0DEBFCDBF63
:1000700010E0A0E6B0E0E8E4F7E002C005900D92E1
:10008000AC37B107D9F720E0ACE7B0E001C01D9272
:10009000A938B207E1F70E9470020C94A2030C94F5
:1000A000000041E063E082E00E94870041E064E0FC
:1000B00082E00E9487000C947503882319F0813038
:1000C00041F0089541E063E082E00E94EC0040E0EE
:1000D00006C040E063E082E00E94EC0041E064E0A2
:1000E00082E00C94EC00880F982F990F990F890FDC
:1000F00090E00C947A030C94840340E063E082E087
:100100000E94EC0040E064E082E00C94EC004423A8
:1001100079F1413009F05FC0813079F028F0823008
:10012000A9F08330E1F008952AB381E090E001C0A6
:10013000880F6A95EAF7822B2CC027B381E090E004
:1001400001C0880F6A95EAF7822B2EC024B381E0A4
:1001500090E001C0880F6A95EAF7822B30C021B386
:1001600081E090E001C0880F6A95EAF7822B32C0E7
:10017000813089F028F08230C9F0833011F1089580
:100180002AB381E090E001C0880F6A95EAF7809574
:1001900082238ABB089527B381E090E001C0880FD5
:1001A0006A95EAF78095822387BB089524B381E09E
:1001B00090E001C0880F6A95EAF78095822384BB9E
:1001C000089521B381E090E001C0880F6A95EAF7B5
:1001D0008095822381BB0895442379F1413009F051
:1001E0005FC0813079F028F08230A9F08330E1F0EF
:1001F00008952BB381E090E001C0880F6A95EAF77B
:10020000822B2CC028B381E090E001C0880F6A9552
:10021000EAF7822B2EC025B381E090E001C0880F61
:100220006A95EAF7822B30C022B381E090E001C0EA
:10023000880F6A95EAF7822B32C0813089F028F066
:100240008230C9F0833011F108952BB381E090E042
:1002500001C0880F6A95EAF7809582238BBB0895C9
:1002600028B381E090E001C0880F6A95EAF7809595
:10027000822388BB089525B381E090E001C0880FF8
:100280006A95EAF78095822385BB089522B381E0C1
:1002900090E001C0880F6A95EAF78095822382BBBF
:1002A0000895CF93C82F40E060E081E00E94EC0009
:1002B00040E061E081E00E94EC0040E062E081E02B
:1002C0000E94EC008BB39C2F907F8F70892B8BBB8F
:1002D00041E062E081E00E94EC008FEC97E0019742
:1002E000F1F700C0000040E062E081E00E94EC0015
:1002F0002BB330E1C39FC0011124922F9F70892B33
:100300008BBB41E062E081E00E94EC008FEC97E063
:100310000197F1F700C0000040E062E081E00E9438
:10032000EC008FE097E20197F1F700C00000CF9159
:10033000089541E060E081E00E94870041E061E0D3
:1003400081E00E94870041E062E081E00E94870036
:1003500041E064E080E00E94870041E065E080E0E9
:100360000E94870041E066E080E00E94870041E053
:1003700067E080E00E9487002FEF80E792E0215045
:1003800080409040E1F700C0000083E30E945101EB
:1003900082E30E94510188E20E9451018CE00E9498
:1003A000510181E00E94510186E00E94510182E0EA
:1003B0000C945101CF93C82F41E060E081E00E948E
:1003C000EC0040E061E081E00E94EC0040E062E08F
:1003D00081E00E94EC008C2F807F8BBB41E062E0CB
:1003E00081E00E94EC008FEC97E00197F1F700C0EC
:1003F000000040E062E081E00E94EC00C295C07F16
:10040000CBBB41E062E081E00E94EC008FEC97E022
:100410000197F1F700C0000040E062E081E00E9437
:10042000EC008FE097E20197F1F700C00000CF9158
:1004300008950F931F93CF938C01C0E0F801EC0F48
:10044000F11D8081882321F00E94DA01CF5FF6CF71
:10045000CF911F910F910895CF93DF9300D0CDB727
:10046000DEB790E8998390EC9A83FE01E80FF11DC6
:100470008181860F0F900F90DF91CF910C945101E5
:1004800081E00C94510141E060E082E00C9487002F
:1004900041E061E082E00C94870041E062E082E0AC
:1004A0000C94870041E060E082E00C94EC0041E0B5
:1004B00061E082E00C94EC0041E062E082E00C94A8
:1004C000EC0040E060E082E00C94EC0040E061E091
:1004D00082E00C94EC0040E062E082E00C94EC00DE
:1004E0000E94990165E080E00E942C0280E690E085
:1004F0000E94190263E081E00E942C0288E690E0ED
:100500000E9419022FED83E994E021508040904031
:10051000E1F700C000000E94400265E080E00E9418
:100520002C0284E790E00E9419020E94CA020E94F5
:1005300051000E9443020E9448020E944D0280E046
:100540000E94E60290E0FC01F197E830F105B8F76F
:10055000E65DFF4F0C949C030E945202F0CF0E9474
:100560005702EDCF0E945C02EACF0E946102E7CF02
:100570000E946602E4CF0E946B02E1CF80E00E94FD
:100580005D008AE00E9473000E947B00D8CF0E9429
:100590007D00D5CF41E066E081E00E94870040E029
:1005A00065E081E00E94870040E064E081E00E9415
:1005B000870040E067E081E00E94870068986998C2
:1005C0006A986B986C986D986E9A08958FB9779B1E
:1005D000FECF8FB108951F920F920FB60F92112484
:1005E0002F933F934F935F936F937F938F939F933B
:1005F000AF93BF93EF93FF9380917E0090917F0024
:10060000A0918000B09181000196A11DB11D809341
:100610007E0090937F00A0938000B0938100409172
:10062000820050918300609184007091850084174E
:100630009507A607B70781F48091860082BF1092C4
:100640007E0010927F001092800010928100E09155
:100650008700F09188000995FF91EF91BF91AF91CC
:100660009F918F917F916F915F914F913F912F91CA
:100670000F900FBE0F901F9018951F920F920FB6FC
:100680000F9211242F933F934F935F936F937F9318
:100690008F939F93AF93BF93EF93FF9380917C00D1
:1006A00090917D0001968130910529F090937D0015
:1006B00080937C0009C010927D0010927C00E09134
:1006C0008700F09188000995FF91EF91BF91AF915C
:1006D0009F918F917F916F915F914F913F912F915A
:1006E0000F900FBE0F901F901895BB9A83B7886626
:1006F00083BF089520E0982F822F64E670E00E9467
:10070000880361506CBF089583B7816083BF0895EB
:10071000AA1BBB1B51E107C0AA1FBB1FA617B70727
:1007200010F0A61BB70B881F991F5A95A9F7809543
:100730009095BC01CD010895EE0FFF1F0590F49137
:08074000E02D0994F894FFCFAD
:1007480057656C636F6D6500746F206F75722068F4
:0C0758006F6D6500536D696C6520210019
:00000001FF
